{
  "contractName": "ThanklyToken",
  "abi": [
    {
      "anonymous": false,
      "inputs": [
        {
          "indexed": false,
          "internalType": "address",
          "name": "companyAddress",
          "type": "address"
        }
      ],
      "name": "CompanyRegistered",
      "type": "event"
    },
    {
      "anonymous": false,
      "inputs": [
        {
          "indexed": true,
          "internalType": "address",
          "name": "previousOwner",
          "type": "address"
        },
        {
          "indexed": true,
          "internalType": "address",
          "name": "newOwner",
          "type": "address"
        }
      ],
      "name": "OwnershipTransferred",
      "type": "event"
    },
    {
      "anonymous": false,
      "inputs": [
        {
          "indexed": false,
          "internalType": "uint256",
          "name": "percentage",
          "type": "uint256"
        }
      ],
      "name": "SellingPercentageModified",
      "type": "event"
    },
    {
      "anonymous": false,
      "inputs": [
        {
          "indexed": false,
          "internalType": "bool",
          "name": "newActiveStatus",
          "type": "bool"
        },
        {
          "indexed": false,
          "internalType": "address",
          "name": "tokenOwnerAddress",
          "type": "address"
        }
      ],
      "name": "TokenActiveStatusChanged",
      "type": "event"
    },
    {
      "anonymous": false,
      "inputs": [
        {
          "indexed": false,
          "internalType": "string",
          "name": "name",
          "type": "string"
        },
        {
          "indexed": false,
          "internalType": "string",
          "name": "symbol",
          "type": "string"
        }
      ],
      "name": "TokenCreated",
      "type": "event"
    },
    {
      "anonymous": false,
      "inputs": [
        {
          "indexed": false,
          "internalType": "uint256",
          "name": "value",
          "type": "uint256"
        }
      ],
      "name": "TokenValueConversionModified",
      "type": "event"
    },
    {
      "anonymous": false,
      "inputs": [
        {
          "indexed": false,
          "internalType": "bytes32",
          "name": "id",
          "type": "bytes32"
        },
        {
          "indexed": false,
          "internalType": "uint256",
          "name": "amount",
          "type": "uint256"
        }
      ],
      "name": "TokensBurned",
      "type": "event"
    },
    {
      "anonymous": false,
      "inputs": [
        {
          "indexed": false,
          "internalType": "bytes32",
          "name": "id",
          "type": "bytes32"
        },
        {
          "indexed": false,
          "internalType": "uint256",
          "name": "amount",
          "type": "uint256"
        }
      ],
      "name": "TokensTransferedFromCompanyToWorker",
      "type": "event"
    },
    {
      "anonymous": false,
      "inputs": [
        {
          "indexed": false,
          "internalType": "bytes32",
          "name": "from",
          "type": "bytes32"
        },
        {
          "indexed": false,
          "internalType": "bytes32",
          "name": "to",
          "type": "bytes32"
        },
        {
          "indexed": false,
          "internalType": "uint256",
          "name": "amount",
          "type": "uint256"
        }
      ],
      "name": "TokensTransferedFromWorkerToWorker",
      "type": "event"
    },
    {
      "anonymous": false,
      "inputs": [
        {
          "indexed": false,
          "internalType": "uint256",
          "name": "amount",
          "type": "uint256"
        }
      ],
      "name": "Withdraw",
      "type": "event"
    },
    {
      "anonymous": false,
      "inputs": [
        {
          "indexed": false,
          "internalType": "bytes32",
          "name": "id",
          "type": "bytes32"
        },
        {
          "indexed": false,
          "internalType": "address",
          "name": "tokenOwnerAddress",
          "type": "address"
        }
      ],
      "name": "WorkerResgistered",
      "type": "event"
    },
    {
      "constant": true,
      "inputs": [
        {
          "internalType": "address",
          "name": "",
          "type": "address"
        }
      ],
      "name": "companyToken",
      "outputs": [
        {
          "internalType": "string",
          "name": "name",
          "type": "string"
        },
        {
          "internalType": "string",
          "name": "symbol",
          "type": "string"
        },
        {
          "internalType": "bool",
          "name": "active",
          "type": "bool"
        },
        {
          "internalType": "bool",
          "name": "registered",
          "type": "bool"
        },
        {
          "internalType": "uint256",
          "name": "totalSupplied",
          "type": "uint256"
        },
        {
          "internalType": "uint256",
          "name": "totalTransfered",
          "type": "uint256"
        },
        {
          "internalType": "uint256",
          "name": "totalBurned",
          "type": "uint256"
        }
      ],
      "payable": false,
      "stateMutability": "view",
      "type": "function"
    },
    {
      "constant": true,
      "inputs": [],
      "name": "isOwner",
      "outputs": [
        {
          "internalType": "bool",
          "name": "",
          "type": "bool"
        }
      ],
      "payable": false,
      "stateMutability": "view",
      "type": "function"
    },
    {
      "constant": true,
      "inputs": [],
      "name": "owner",
      "outputs": [
        {
          "internalType": "address",
          "name": "",
          "type": "address"
        }
      ],
      "payable": false,
      "stateMutability": "view",
      "type": "function"
    },
    {
      "constant": false,
      "inputs": [],
      "name": "renounceOwnership",
      "outputs": [],
      "payable": false,
      "stateMutability": "nonpayable",
      "type": "function"
    },
    {
      "constant": true,
      "inputs": [],
      "name": "sellingPercentage",
      "outputs": [
        {
          "internalType": "uint256",
          "name": "",
          "type": "uint256"
        }
      ],
      "payable": false,
      "stateMutability": "view",
      "type": "function"
    },
    {
      "constant": true,
      "inputs": [],
      "name": "tokenValueConversion",
      "outputs": [
        {
          "internalType": "uint256",
          "name": "",
          "type": "uint256"
        }
      ],
      "payable": false,
      "stateMutability": "view",
      "type": "function"
    },
    {
      "constant": false,
      "inputs": [
        {
          "internalType": "address",
          "name": "newOwner",
          "type": "address"
        }
      ],
      "name": "transferOwnership",
      "outputs": [],
      "payable": false,
      "stateMutability": "nonpayable",
      "type": "function"
    },
    {
      "constant": true,
      "inputs": [
        {
          "internalType": "bytes32",
          "name": "",
          "type": "bytes32"
        }
      ],
      "name": "workerCompanyAddress",
      "outputs": [
        {
          "internalType": "address",
          "name": "",
          "type": "address"
        }
      ],
      "payable": false,
      "stateMutability": "view",
      "type": "function"
    },
    {
      "constant": false,
      "inputs": [
        {
          "internalType": "address",
          "name": "_owner",
          "type": "address"
        }
      ],
      "name": "initialize",
      "outputs": [],
      "payable": false,
      "stateMutability": "nonpayable",
      "type": "function"
    },
    {
      "constant": false,
      "inputs": [
        {
          "internalType": "uint256",
          "name": "_value",
          "type": "uint256"
        }
      ],
      "name": "setSellingPercentage",
      "outputs": [],
      "payable": false,
      "stateMutability": "nonpayable",
      "type": "function"
    },
    {
      "constant": false,
      "inputs": [
        {
          "internalType": "uint256",
          "name": "_value",
          "type": "uint256"
        }
      ],
      "name": "setTokenValueConversion",
      "outputs": [],
      "payable": false,
      "stateMutability": "nonpayable",
      "type": "function"
    },
    {
      "constant": false,
      "inputs": [
        {
          "internalType": "address",
          "name": "_trustedSigner",
          "type": "address"
        }
      ],
      "name": "setTrustedSigner",
      "outputs": [],
      "payable": false,
      "stateMutability": "nonpayable",
      "type": "function"
    },
    {
      "constant": false,
      "inputs": [],
      "name": "registerCompany",
      "outputs": [],
      "payable": false,
      "stateMutability": "nonpayable",
      "type": "function"
    },
    {
      "constant": false,
      "inputs": [
        {
          "internalType": "string",
          "name": "_name",
          "type": "string"
        },
        {
          "internalType": "string",
          "name": "_symbol",
          "type": "string"
        }
      ],
      "name": "createToken",
      "outputs": [],
      "payable": false,
      "stateMutability": "nonpayable",
      "type": "function"
    },
    {
      "constant": false,
      "inputs": [
        {
          "internalType": "bool",
          "name": "_newActiveStatus",
          "type": "bool"
        }
      ],
      "name": "setTokenActive",
      "outputs": [],
      "payable": false,
      "stateMutability": "nonpayable",
      "type": "function"
    },
    {
      "constant": false,
      "inputs": [
        {
          "internalType": "bytes32",
          "name": "_workerId",
          "type": "bytes32"
        }
      ],
      "name": "registerWorker",
      "outputs": [],
      "payable": false,
      "stateMutability": "nonpayable",
      "type": "function"
    },
    {
      "constant": false,
      "inputs": [
        {
          "internalType": "bytes32",
          "name": "_workerId",
          "type": "bytes32"
        },
        {
          "internalType": "uint256",
          "name": "_amount",
          "type": "uint256"
        }
      ],
      "name": "transferTokensFromCompanyToWorker",
      "outputs": [],
      "payable": true,
      "stateMutability": "payable",
      "type": "function"
    },
    {
      "constant": false,
      "inputs": [
        {
          "internalType": "bytes32",
          "name": "_from",
          "type": "bytes32"
        },
        {
          "internalType": "bytes32",
          "name": "_to",
          "type": "bytes32"
        },
        {
          "internalType": "address",
          "name": "_companyAddress",
          "type": "address"
        },
        {
          "internalType": "uint256",
          "name": "_amount",
          "type": "uint256"
        }
      ],
      "name": "transferTokensFromWorkerToWorker",
      "outputs": [],
      "payable": false,
      "stateMutability": "nonpayable",
      "type": "function"
    },
    {
      "constant": false,
      "inputs": [
        {
          "internalType": "bytes32",
          "name": "_workerId",
          "type": "bytes32"
        },
        {
          "internalType": "address",
          "name": "_companyAddress",
          "type": "address"
        },
        {
          "internalType": "uint256",
          "name": "_amount",
          "type": "uint256"
        }
      ],
      "name": "burnTokens",
      "outputs": [],
      "payable": false,
      "stateMutability": "nonpayable",
      "type": "function"
    },
    {
      "constant": true,
      "inputs": [
        {
          "internalType": "bytes32",
          "name": "_workerId",
          "type": "bytes32"
        },
        {
          "internalType": "address",
          "name": "_companyAddress",
          "type": "address"
        }
      ],
      "name": "workerBalance",
      "outputs": [
        {
          "internalType": "uint256",
          "name": "transferableTokens",
          "type": "uint256"
        },
        {
          "internalType": "uint256",
          "name": "burnableTokens",
          "type": "uint256"
        }
      ],
      "payable": false,
      "stateMutability": "view",
      "type": "function"
    }
  ],
  "bytecode": "0x6080604052612776806100136000396000f3fe60806040526004361061011f5760003560e01c80638f32d59b116100a0578063c9b0fcf211610064578063c9b0fcf214610725578063da11d916146107a0578063f17e7530146107db578063f2fde38b14610816578063f6cff1b4146108675761011f565b80638f32d59b146104a3578063978f2771146104d25780639cfab62814610633578063a9dd9594146106a9578063c4d66de8146106d45761011f565b80636cf9e034116100e75780636cf9e034146103b8578063715018a6146103e35780637cad1107146103fa5780637f0a2c43146104115780638da5cb5b1461044c5761011f565b80631922ab11146101245780632f2f2d561461015c57806350ac086f146102bb57806356a1c701146102f85780635feb350b14610349575b600080fd5b61015a6004803603604081101561013a57600080fd5b8101908080359060200190929190803590602001909291905050506108cc565b005b34801561016857600080fd5b506102b96004803603604081101561017f57600080fd5b810190808035906020019064010000000081111561019c57600080fd5b8201836020820111156101ae57600080fd5b803590602001918460018302840111640100000000831117156101d057600080fd5b91908080601f016020809104026020016040519081016040528093929190818152602001838380828437600081840152601f19601f8201169050808301925050505050505091929192908035906020019064010000000081111561023357600080fd5b82018360208201111561024557600080fd5b8035906020019184600183028401116401000000008311171561026757600080fd5b91908080601f016020809104026020016040519081016040528093929190818152602001838380828437600081840152601f19601f820116905080830192505050505050509192919290505050610b40565b005b3480156102c757600080fd5b506102f6600480360360208110156102de57600080fd5b81019080803515159060200190929190505050610ef5565b005b34801561030457600080fd5b506103476004803603602081101561031b57600080fd5b81019080803573ffffffffffffffffffffffffffffffffffffffff169060200190929190505050610fec565b005b34801561035557600080fd5b506103b66004803603608081101561036c57600080fd5b810190808035906020019092919080359060200190929190803573ffffffffffffffffffffffffffffffffffffffff169060200190929190803590602001909291905050506110c1565b005b3480156103c457600080fd5b506103cd6113f8565b6040518082815260200191505060405180910390f35b3480156103ef57600080fd5b506103f86113fe565b005b34801561040657600080fd5b5061040f611539565b005b34801561041d57600080fd5b5061044a6004803603602081101561043457600080fd5b8101908080359060200190929190505050611653565b005b34801561045857600080fd5b5061046161170e565b604051808273ffffffffffffffffffffffffffffffffffffffff1673ffffffffffffffffffffffffffffffffffffffff16815260200191505060405180910390f35b3480156104af57600080fd5b506104b8611738565b604051808215151515815260200191505060405180910390f35b3480156104de57600080fd5b50610521600480360360208110156104f557600080fd5b81019080803573ffffffffffffffffffffffffffffffffffffffff169060200190929190505050611797565b604051808060200180602001881515151581526020018715151515815260200186815260200185815260200184815260200183810383528a818151815260200191508051906020019080838360005b8381101561058b578082015181840152602081019050610570565b50505050905090810190601f1680156105b85780820380516001836020036101000a031916815260200191505b50838103825289818151815260200191508051906020019080838360005b838110156105f15780820151818401526020810190506105d6565b50505050905090810190601f16801561061e5780820380516001836020036101000a031916815260200191505b50995050505050505050505060405180910390f35b34801561063f57600080fd5b5061068c6004803603604081101561065657600080fd5b8101908080359060200190929190803573ffffffffffffffffffffffffffffffffffffffff169060200190929190505050611923565b604051808381526020018281526020019250505060405180910390f35b3480156106b557600080fd5b506106be611a48565b6040518082815260200191505060405180910390f35b3480156106e057600080fd5b50610723600480360360208110156106f757600080fd5b81019080803573ffffffffffffffffffffffffffffffffffffffff169060200190929190505050611a4e565b005b34801561073157600080fd5b5061075e6004803603602081101561074857600080fd5b8101908080359060200190929190505050611b57565b604051808273ffffffffffffffffffffffffffffffffffffffff1673ffffffffffffffffffffffffffffffffffffffff16815260200191505060405180910390f35b3480156107ac57600080fd5b506107d9600480360360208110156107c357600080fd5b8101908080359060200190929190505050611b8a565b005b3480156107e757600080fd5b50610814600480360360208110156107fe57600080fd5b8101908080359060200190929190505050611dce565b005b34801561082257600080fd5b506108656004803603602081101561083957600080fd5b81019080803573ffffffffffffffffffffffffffffffffffffffff169060200190929190505050611e89565b005b34801561087357600080fd5b506108ca6004803603606081101561088a57600080fd5b8101908080359060200190929190803573ffffffffffffffffffffffffffffffffffffffff16906020019092919080359060200190929190505050611f0f565b005b3360011515606960008373ffffffffffffffffffffffffffffffffffffffff1673ffffffffffffffffffffffffffffffffffffffff16815260200190815260200160002060020160009054906101000a900460ff1615151461092d57600080fd5b60006067541161093c57600080fd5b82338073ffffffffffffffffffffffffffffffffffffffff16606a600084815260200190815260200160002060009054906101000a900473ffffffffffffffffffffffffffffffffffffffff1673ffffffffffffffffffffffffffffffffffffffff16146109a957600080fd5b83600060675482029050600060646066548302816109c357fe5b0490508082013410156109d557600080fd5b8687606960003373ffffffffffffffffffffffffffffffffffffffff1673ffffffffffffffffffffffffffffffffffffffff16815260200190815260200160002060060160008b81526020019081526020016000206000828254019250508190555087606960003373ffffffffffffffffffffffffffffffffffffffff1673ffffffffffffffffffffffffffffffffffffffff168152602001908152602001600020600301600082825401925050819055507f4b6246a336e9f44370ab56758d56be048df672ebc0daffcbdaba96fc7b6fe3808989604051808381526020018281526020019250505060405180910390a160006067548202905060006064606654830281610adf57fe5b0490506000818334030390503373ffffffffffffffffffffffffffffffffffffffff166108fc829081150290604051600060405180830381858888f19350505050158015610b31573d6000803e3d6000fd5b50505050505050505050505050565b60011515606860003373ffffffffffffffffffffffffffffffffffffffff1673ffffffffffffffffffffffffffffffffffffffff16815260200190815260200160002060009054906101000a900460ff16151514610b9d57600080fd5b600060665411610bac57600080fd5b81606960003373ffffffffffffffffffffffffffffffffffffffff1673ffffffffffffffffffffffffffffffffffffffff1681526020019081526020016000206000019080519060200190610c02929190612648565b5080606960003373ffffffffffffffffffffffffffffffffffffffff1673ffffffffffffffffffffffffffffffffffffffff1681526020019081526020016000206001019080519060200190610c59929190612648565b506001606960003373ffffffffffffffffffffffffffffffffffffffff1673ffffffffffffffffffffffffffffffffffffffff16815260200190815260200160002060020160006101000a81548160ff0219169083151502179055506001606960003373ffffffffffffffffffffffffffffffffffffffff1673ffffffffffffffffffffffffffffffffffffffff16815260200190815260200160002060020160016101000a81548160ff0219169083151502179055506000606960003373ffffffffffffffffffffffffffffffffffffffff1673ffffffffffffffffffffffffffffffffffffffff168152602001908152602001600020600301819055506000606960003373ffffffffffffffffffffffffffffffffffffffff1673ffffffffffffffffffffffffffffffffffffffff168152602001908152602001600020600401819055506000606960003373ffffffffffffffffffffffffffffffffffffffff1673ffffffffffffffffffffffffffffffffffffffff168152602001908152602001600020600501819055507ff9c545e22be560f143ae9cd69f5b3e492fab353d3708a8a670db31c32b485a838282604051808060200180602001838103835285818151815260200191508051906020019080838360005b83811015610e4f578082015181840152602081019050610e34565b50505050905090810190601f168015610e7c5780820380516001836020036101000a031916815260200191505b50838103825284818151815260200191508051906020019080838360005b83811015610eb5578082015181840152602081019050610e9a565b50505050905090810190601f168015610ee25780820380516001836020036101000a031916815260200191505b5094505050505060405180910390a15050565b60011515606960003373ffffffffffffffffffffffffffffffffffffffff1673ffffffffffffffffffffffffffffffffffffffff16815260200190815260200160002060020160019054906101000a900460ff16151514610f5557600080fd5b600115158115151415610f7057610f6b336121a5565b610f7a565b610f7933612265565b5b7f4550590450ffb5e9f6a681bb790468c12de8db697e5dff191b56e91202104819813360405180831515151581526020018273ffffffffffffffffffffffffffffffffffffffff1673ffffffffffffffffffffffffffffffffffffffff1681526020019250505060405180910390a150565b610ff4611738565b611066576040517f08c379a00000000000000000000000000000000000000000000000000000000081526004018080602001828103825260208152602001807f4f776e61626c653a2063616c6c6572206973206e6f7420746865206f776e657281525060200191505060405180910390fd5b6001606b60008373ffffffffffffffffffffffffffffffffffffffff1673ffffffffffffffffffffffffffffffffffffffff16815260200190815260200160002060006101000a81548160ff02191690831515021790555050565b60011515606b60003373ffffffffffffffffffffffffffffffffffffffff1673ffffffffffffffffffffffffffffffffffffffff16815260200190815260200160002060009054906101000a900460ff1615151461111e57600080fd5b8160011515606960008373ffffffffffffffffffffffffffffffffffffffff1673ffffffffffffffffffffffffffffffffffffffff16815260200190815260200160002060020160009054906101000a900460ff1615151461117f57600080fd5b84838073ffffffffffffffffffffffffffffffffffffffff16606a600084815260200190815260200160002060009054906101000a900473ffffffffffffffffffffffffffffffffffffffff1673ffffffffffffffffffffffffffffffffffffffff16146111ec57600080fd5b85858073ffffffffffffffffffffffffffffffffffffffff16606a600084815260200190815260200160002060009054906101000a900473ffffffffffffffffffffffffffffffffffffffff1673ffffffffffffffffffffffffffffffffffffffff161461125957600080fd5b88878760006112688484611923565b5090508181101561127857600080fd5b60008b905060008e905060008e905060008d905080606960008673ffffffffffffffffffffffffffffffffffffffff1673ffffffffffffffffffffffffffffffffffffffff16815260200190815260200160002060060160008581526020019081526020016000206000828254039250508190555080606960008673ffffffffffffffffffffffffffffffffffffffff1673ffffffffffffffffffffffffffffffffffffffff1681526020019081526020016000206007016000848152602001908152602001600020600082825401925050819055508d606960003373ffffffffffffffffffffffffffffffffffffffff1673ffffffffffffffffffffffffffffffffffffffff168152602001908152602001600020600401600082825401925050819055507fdc2ef08ff62ca25b9db8b9fa9f18ece7a607d5668cc185478176dfe4b423989983838360405180848152602001838152602001828152602001935050505060405180910390a15050505050505050505050505050505050565b60665481565b611406611738565b611478576040517f08c379a00000000000000000000000000000000000000000000000000000000081526004018080602001828103825260208152602001807f4f776e61626c653a2063616c6c6572206973206e6f7420746865206f776e657281525060200191505060405180910390fd5b600073ffffffffffffffffffffffffffffffffffffffff16603360009054906101000a900473ffffffffffffffffffffffffffffffffffffffff1673ffffffffffffffffffffffffffffffffffffffff167f8be0079c531659141344cd1fd0a4f28419497f9722a3daafe3b4186f6b6457e060405160405180910390a36000603360006101000a81548173ffffffffffffffffffffffffffffffffffffffff021916908373ffffffffffffffffffffffffffffffffffffffff160217905550565b60001515606860003373ffffffffffffffffffffffffffffffffffffffff1673ffffffffffffffffffffffffffffffffffffffff16815260200190815260200160002060009054906101000a900460ff1615151461159657600080fd5b6001606860003373ffffffffffffffffffffffffffffffffffffffff1673ffffffffffffffffffffffffffffffffffffffff16815260200190815260200160002060006101000a81548160ff0219169083151502179055507f62806c829f7c8d0f1563dbdcf4f05f12a6b3c0e29ab581b0ccdffd608e99393833604051808273ffffffffffffffffffffffffffffffffffffffff1673ffffffffffffffffffffffffffffffffffffffff16815260200191505060405180910390a1565b61165b611738565b6116cd576040517f08c379a00000000000000000000000000000000000000000000000000000000081526004018080602001828103825260208152602001807f4f776e61626c653a2063616c6c6572206973206e6f7420746865206f776e657281525060200191505060405180910390fd5b806067819055507f670c83e88adf8e985ddf47b2b105b66c972622a8e2a2d1a9d07e4173e39355a6816040518082815260200191505060405180910390a150565b6000603360009054906101000a900473ffffffffffffffffffffffffffffffffffffffff16905090565b6000603360009054906101000a900473ffffffffffffffffffffffffffffffffffffffff1673ffffffffffffffffffffffffffffffffffffffff1661177b612325565b73ffffffffffffffffffffffffffffffffffffffff1614905090565b6069602052806000526040600020600091509050806000018054600181600116156101000203166002900480601f0160208091040260200160405190810160405280929190818152602001828054600181600116156101000203166002900480156118435780601f1061181857610100808354040283529160200191611843565b820191906000526020600020905b81548152906001019060200180831161182657829003601f168201915b505050505090806001018054600181600116156101000203166002900480601f0160208091040260200160405190810160405280929190818152602001828054600181600116156101000203166002900480156118e15780601f106118b6576101008083540402835291602001916118e1565b820191906000526020600020905b8154815290600101906020018083116118c457829003601f168201915b5050505050908060020160009054906101000a900460ff16908060020160019054906101000a900460ff16908060030154908060040154908060050154905087565b60008083838073ffffffffffffffffffffffffffffffffffffffff16606a600084815260200190815260200160002060009054906101000a900473ffffffffffffffffffffffffffffffffffffffff1673ffffffffffffffffffffffffffffffffffffffff161461199357600080fd5b606960008673ffffffffffffffffffffffffffffffffffffffff1673ffffffffffffffffffffffffffffffffffffffff1681526020019081526020016000206006016000878152602001908152602001600020549350606960008673ffffffffffffffffffffffffffffffffffffffff1673ffffffffffffffffffffffffffffffffffffffff168152602001908152602001600020600701600087815260200190815260200160002054925050509250929050565b60675481565b600060019054906101000a900460ff1680611a6d5750611a6c61232d565b5b80611a8457506000809054906101000a900460ff16155b611ad9576040517f08c379a000000000000000000000000000000000000000000000000000000000815260040180806020018281038252602e815260200180612714602e913960400191505060405180910390fd5b60008060019054906101000a900460ff161590508015611b29576001600060016101000a81548160ff02191690831515021790555060016000806101000a81548160ff0219169083151502179055505b611b3282612344565b8015611b535760008060016101000a81548160ff0219169083151502179055505b5050565b606a6020528060005260406000206000915054906101000a900473ffffffffffffffffffffffffffffffffffffffff1681565b3360011515606960008373ffffffffffffffffffffffffffffffffffffffff1673ffffffffffffffffffffffffffffffffffffffff16815260200190815260200160002060020160009054906101000a900460ff16151514611beb57600080fd5b81338073ffffffffffffffffffffffffffffffffffffffff16606a600084815260200190815260200160002060009054906101000a900473ffffffffffffffffffffffffffffffffffffffff1673ffffffffffffffffffffffffffffffffffffffff161415611c5957600080fd5b6000606960003373ffffffffffffffffffffffffffffffffffffffff1673ffffffffffffffffffffffffffffffffffffffff1681526020019081526020016000206006016000868152602001908152602001600020819055506000606960003373ffffffffffffffffffffffffffffffffffffffff1673ffffffffffffffffffffffffffffffffffffffff16815260200190815260200160002060070160008681526020019081526020016000208190555033606a600086815260200190815260200160002060006101000a81548173ffffffffffffffffffffffffffffffffffffffff021916908373ffffffffffffffffffffffffffffffffffffffff1602179055507f1e30ee1ac63c208d22bcf8170e861e5cf5234d5b4e111a1630c1ad3f8440a79d8433604051808381526020018273ffffffffffffffffffffffffffffffffffffffff1673ffffffffffffffffffffffffffffffffffffffff1681526020019250505060405180910390a150505050565b611dd6611738565b611e48576040517f08c379a00000000000000000000000000000000000000000000000000000000081526004018080602001828103825260208152602001807f4f776e61626c653a2063616c6c6572206973206e6f7420746865206f776e657281525060200191505060405180910390fd5b806066819055507f802cb6f8fccfce62b12d8ec6ee4c162bbe86b43cfc549c06610e799471e43ba5816040518082815260200191505060405180910390a150565b611e91611738565b611f03576040517f08c379a00000000000000000000000000000000000000000000000000000000081526004018080602001828103825260208152602001807f4f776e61626c653a2063616c6c6572206973206e6f7420746865206f776e657281525060200191505060405180910390fd5b611f0c81612502565b50565b60011515606b60003373ffffffffffffffffffffffffffffffffffffffff1673ffffffffffffffffffffffffffffffffffffffff16815260200190815260200160002060009054906101000a900460ff16151514611f6c57600080fd5b8160011515606960008373ffffffffffffffffffffffffffffffffffffffff1673ffffffffffffffffffffffffffffffffffffffff16815260200190815260200160002060020160009054906101000a900460ff16151514611fcd57600080fd5b83838073ffffffffffffffffffffffffffffffffffffffff16606a600084815260200190815260200160002060009054906101000a900473ffffffffffffffffffffffffffffffffffffffff1673ffffffffffffffffffffffffffffffffffffffff161461203a57600080fd5b85858560006120498484611923565b9150508181101561205957600080fd5b87606960008b73ffffffffffffffffffffffffffffffffffffffff1673ffffffffffffffffffffffffffffffffffffffff16815260200190815260200160002060070160008c81526020019081526020016000206000828254039250508190555087606960003373ffffffffffffffffffffffffffffffffffffffff1673ffffffffffffffffffffffffffffffffffffffff1681526020019081526020016000206004016000828254039250508190555087606960003373ffffffffffffffffffffffffffffffffffffffff1673ffffffffffffffffffffffffffffffffffffffff168152602001908152602001600020600501600082825401925050819055507fba93aa9969f3fe944dab4e97e638adc5c454a26b7fbff96a93861436b2368bdb8a89604051808381526020018281526020019250505060405180910390a150505050505050505050565b8060001515606960008373ffffffffffffffffffffffffffffffffffffffff1673ffffffffffffffffffffffffffffffffffffffff16815260200190815260200160002060020160009054906101000a900460ff1615151461220657600080fd5b6001606960008473ffffffffffffffffffffffffffffffffffffffff1673ffffffffffffffffffffffffffffffffffffffff16815260200190815260200160002060020160006101000a81548160ff0219169083151502179055505050565b8060011515606960008373ffffffffffffffffffffffffffffffffffffffff1673ffffffffffffffffffffffffffffffffffffffff16815260200190815260200160002060020160009054906101000a900460ff161515146122c657600080fd5b6000606960008473ffffffffffffffffffffffffffffffffffffffff1673ffffffffffffffffffffffffffffffffffffffff16815260200190815260200160002060020160006101000a81548160ff0219169083151502179055505050565b600033905090565b6000803090506000813b9050600081149250505090565b600060019054906101000a900460ff1680612363575061236261232d565b5b8061237a57506000809054906101000a900460ff16155b6123cf576040517f08c379a000000000000000000000000000000000000000000000000000000000815260040180806020018281038252602e815260200180612714602e913960400191505060405180910390fd5b60008060019054906101000a900460ff16159050801561241f576001600060016101000a81548160ff02191690831515021790555060016000806101000a81548160ff0219169083151502179055505b81603360006101000a81548173ffffffffffffffffffffffffffffffffffffffff021916908373ffffffffffffffffffffffffffffffffffffffff160217905550603360009054906101000a900473ffffffffffffffffffffffffffffffffffffffff1673ffffffffffffffffffffffffffffffffffffffff16600073ffffffffffffffffffffffffffffffffffffffff167f8be0079c531659141344cd1fd0a4f28419497f9722a3daafe3b4186f6b6457e060405160405180910390a380156124fe5760008060016101000a81548160ff0219169083151502179055505b5050565b600073ffffffffffffffffffffffffffffffffffffffff168173ffffffffffffffffffffffffffffffffffffffff161415612588576040517f08c379a00000000000000000000000000000000000000000000000000000000081526004018080602001828103825260268152602001806126ee6026913960400191505060405180910390fd5b8073ffffffffffffffffffffffffffffffffffffffff16603360009054906101000a900473ffffffffffffffffffffffffffffffffffffffff1673ffffffffffffffffffffffffffffffffffffffff167f8be0079c531659141344cd1fd0a4f28419497f9722a3daafe3b4186f6b6457e060405160405180910390a380603360006101000a81548173ffffffffffffffffffffffffffffffffffffffff021916908373ffffffffffffffffffffffffffffffffffffffff16021790555050565b828054600181600116156101000203166002900490600052602060002090601f016020900481019282601f1061268957805160ff19168380011785556126b7565b828001600101855582156126b7579182015b828111156126b657825182559160200191906001019061269b565b5b5090506126c491906126c8565b5090565b6126ea91905b808211156126e65760008160009055506001016126ce565b5090565b9056fe4f776e61626c653a206e6577206f776e657220697320746865207a65726f2061646472657373436f6e747261637420696e7374616e63652068617320616c7265616479206265656e20696e697469616c697a6564a265627a7a72315820ef45164c14e8470855b601521257ae08991af0277e836030d00b4cf4122aa5d764736f6c63430005100032",
  "source": "pragma solidity ^ 0.5.0;\n\nimport \"@openzeppelin/upgrades/contracts/Initializable.sol\";\nimport \"@openzeppelin/contracts-ethereum-package/contracts/ownership/Ownable.sol\";\n\n/**\n * @title ThanklyToken\n * @dev This is the Token Smart Contract that will be used to create\n *      tokens for the different companies\n */\n\ncontract ThanklyToken is Initializable, Ownable {\n\n  //-------------------------------- //\n  // STORAGE\n  //-------------------------------- //\n\n  // The percentage that the contract charges to the company for mining tokens\n  uint256 public sellingPercentage;\n\n  // The value of the token\n  uint256 public tokenValueConversion;\n\n  struct Token {\n    string name;\n    string symbol;\n    bool active;\n    bool registered;\n    uint256 totalSupplied;\n    uint256 totalTransfered;\n    uint256 totalBurned;\n    mapping (bytes32 => uint256) transferableTokens;\n    mapping (bytes32 => uint256) burnableTokens;\n  }\n\n  mapping (address => bool) private companyRegistered;\n  mapping (address => Token) public companyToken;\n  mapping (bytes32 => address) public workerCompanyAddress;\n  mapping (address => bool) private trustedSigner;\n\n  //-------------------------------- //\n  // EVENTS\n  //-------------------------------- //\n\n  event SellingPercentageModified(uint256 percentage);\n  event TokenValueConversionModified(uint256 value);\n  event CompanyRegistered(address companyAddress);\n  event TokenCreated(string name, string symbol);\n  event TokenActiveStatusChanged(bool newActiveStatus, address tokenOwnerAddress);\n  event WorkerResgistered(bytes32 id, address tokenOwnerAddress);\n  event TokensTransferedFromCompanyToWorker(bytes32 id, uint256 amount);\n  event TokensTransferedFromWorkerToWorker(bytes32 from, bytes32 to, uint256 amount);\n  event TokensBurned(bytes32 id, uint256 amount);\n  event Withdraw(uint256 amount);\n\n  //-------------------------------- //\n  // MODIFIERS\n  //-------------------------------- //\n\n  /**\n   * @dev Verify address is not previously registered\n   */\n  modifier notRegisteredComapny() {\n    require (companyRegistered[msg.sender] == false);\n    _;\n  }\n\n  /**\n   * @dev Verify address is previously registered\n   */\n  modifier registeredComapny() {\n    require (companyRegistered[msg.sender] == true);\n    _;\n  }\n\n  /**\n   * @dev Verify sellingPercentageDefined is defined\n   */\n  modifier sellingPercentageDefined() {\n    require (sellingPercentage > 0);\n    _;\n  }\n\n  /**\n   * @dev Verify tokenValueConversion is defined\n   */\n  modifier tokenValueConversionDefined() {\n    require (tokenValueConversion > 0);\n    _;\n  }\n\n  /**\n   * @dev Verify that company has a token registered\n   */\n  modifier registeredToken() {\n    require (companyToken[msg.sender].registered == true);\n    _;\n  }\n\n  /**\n   * @dev Verify that company has an active token\n   * @param _companyAddress Address of the company\n   */\n  modifier activeToken(address _companyAddress) {\n    require (companyToken[_companyAddress].active == true);\n    _;\n  }\n\n  /**\n   * @dev Verify that company has an inactive token\n   * @param _companyAddress Address of the company\n   */\n  modifier inactiveToken(address _companyAddress) {\n    require (companyToken[_companyAddress].active == false);\n    _;\n  }\n\n  /**\n   * @dev Verify that is not already registered for that company\n   * @param _workerId worker id from the DB\n   * @param _companyAddress Address of the company\n   */\n  modifier workerUnregistered(bytes32 _workerId, address _companyAddress) {\n    require (workerCompanyAddress[_workerId] != _companyAddress);\n    _;\n  }\n\n  /**\n   * @dev Verify that is already registered for that company\n   * @param _workerId worker id from the DB\n   * @param _companyAddress Address of the company\n   */\n  modifier workerRegistered(bytes32 _workerId, address _companyAddress) {\n    require (workerCompanyAddress[_workerId] == _companyAddress);\n    _;\n  }\n\n  /**\n   * @dev Verify caller as a trsuted signer\n   */\n  modifier verifyCaller() {\n    require (trustedSigner[msg.sender] == true);\n    _;\n  }\n\n  /**\n   * @dev Verify that paid amount is enough\n   * @param _amount amount of tokens to buy\n   */\n  modifier paidEnough(uint256 _amount) {\n    uint256 transactionCost = _amount * tokenValueConversion;\n    uint256 transactionFee = transactionCost * sellingPercentage / 100;\n    require(msg.value >= transactionCost + transactionFee);\n    _;\n  }\n\n  /**\n   * @dev Refund extra costs of the process if needed\n   * @param _amount amount of tokens to buy\n   */\n  modifier refundExtraCosts(uint256 _amount) {\n    _;\n    uint256 transactionCost = _amount * tokenValueConversion;\n    uint256 transactionFee = transactionCost * sellingPercentage / 100;\n    uint256 amountToRefund = msg.value - transactionCost - transactionFee;\n    msg.sender.transfer(amountToRefund);\n  }\n\n  /**\n   * @dev Verify that worker has enough tokens to transfer\n   * @param _workerId worker id from the DB\n   * @param _companyAddress Address of the company\n   * @param _amount Amount willing to transfer/burn\n   */\n  modifier enoughTransferableTokens(bytes32 _workerId, address _companyAddress, uint256 _amount) {\n    (uint256 transferableTokens,) = workerBalance(_workerId, _companyAddress);\n    require(transferableTokens >= _amount);\n    _;\n  }\n\n  /**\n   * @dev Verify that worker has enough tokens to burn\n   * @param _workerId worker id from the DB\n   * @param _companyAddress Address of the company\n   * @param _amount Amount willing to transfer/burn\n   */\n  modifier enoughBurnableTokens(bytes32 _workerId, address _companyAddress, uint256 _amount) {\n    (,uint256 burnableTokens) = workerBalance(_workerId, _companyAddress);\n    require(burnableTokens >= _amount);\n    _;\n  }\n\n  //-------------------------------- //\n  // SETTERS\n  //-------------------------------- //\n  \n  // Initializer function (replaces constructor)\n  /**\n   * @dev Initializer function (replaces constructor)\n   * @param _owner Defines the owner of the contract\n   */\n  function initialize(address _owner)\n    public\n    initializer\n  {\n    Ownable.initialize(_owner);\n  }\n\n  /**\n   * @dev Set Selling Value (only owner of the contract)\n   * @param _value selling value of the token\n   */\n  function setSellingPercentage(uint256 _value)\n    public\n    onlyOwner\n  {\n    sellingPercentage = _value;\n\n    emit SellingPercentageModified(_value);\n  }\n\n  /**\n   * @dev Set Token value conversion (only owner of the contract)\n   * @param _value selling value of the token\n   */\n  function setTokenValueConversion(uint256 _value)\n    public\n    onlyOwner\n  {\n    tokenValueConversion = _value;\n\n    emit TokenValueConversionModified(_value);\n  }\n\n  /**\n   * @dev Set trusted signer (it's the platform address)\n   * @param _trustedSigner address of contract addres who calls transfer\n   */\n  function setTrustedSigner(address _trustedSigner)\n    public\n    onlyOwner\n  {\n    trustedSigner[_trustedSigner] = true;\n  }\n\n  /**\n   * @dev Register a company into the platform\n   */\n  function registerCompany()\n    public\n    notRegisteredComapny\n  {\n    companyRegistered[msg.sender] = true;\n\n    emit CompanyRegistered(msg.sender);\n  }\n\n  /**\n   * @dev Create a new token by a company\n   * @param _name Id of the company worker from the DB\n   * @param _symbol Id of the company worker from the DB\n   */\n  function createToken(string memory _name, string memory _symbol)\n    public\n    registeredComapny\n    sellingPercentageDefined\n  {\n    companyToken[msg.sender].name = _name;\n    companyToken[msg.sender].symbol = _symbol;\n    companyToken[msg.sender].active = true;\n    companyToken[msg.sender].registered = true;\n    companyToken[msg.sender].totalSupplied = 0;\n    companyToken[msg.sender].totalTransfered = 0;\n    companyToken[msg.sender].totalBurned = 0;\n\n    emit TokenCreated(_name, _symbol);\n  }\n\n  /**\n   * @dev Create a new token by a company\n   * @param _newActiveStatus New status of the company token (true|false)\n   */\n  function setTokenActive(bool _newActiveStatus)\n    public\n    registeredToken\n  {\n    if (_newActiveStatus == true) {\n      _setTokenAsActive(msg.sender);\n    } else {\n      _setTokenAsInactive(msg.sender);\n    }\n\n    emit TokenActiveStatusChanged(_newActiveStatus, msg.sender);\n  }\n\n  /**\n   * @dev Set company token as active (internal function)\n   * @param _companyAddress Address of the company owner of the token\n   */\n  function _setTokenAsActive(address _companyAddress)\n    internal\n    inactiveToken(_companyAddress)\n  {\n    companyToken[_companyAddress].active = true;\n  }\n\n  /**\n   * @dev Set company token as inactive (internal function)\n   * @param _companyAddress Address of the company owner of the token\n   */\n  function _setTokenAsInactive(address _companyAddress)\n    internal\n    activeToken(_companyAddress)\n  {\n    companyToken[_companyAddress].active = false;\n  }\n\n  /**\n   * @dev Register a new company worker inside the company token\n   * @param _workerId Id of the company worker from DB\n   */\n  function registerWorker(bytes32 _workerId)\n    public\n    activeToken(msg.sender)\n    workerUnregistered(_workerId, msg.sender)\n  {\n    companyToken[msg.sender].transferableTokens[_workerId] = 0;\n    companyToken[msg.sender].burnableTokens[_workerId] = 0;\n    workerCompanyAddress[_workerId] = msg.sender;\n\n    emit WorkerResgistered(_workerId, msg.sender);\n  }\n\n  /**\n   * @dev Transfer tokens from company to worker\n   * @param _workerId Id of the company worker from DB\n   * @param _amount Amount of tokens transfered to worker\n   */\n  function transferTokensFromCompanyToWorker(bytes32 _workerId, uint256 _amount)\n    public\n    payable\n    activeToken(msg.sender)\n    tokenValueConversionDefined\n    workerRegistered(_workerId, msg.sender)\n    paidEnough(_amount)\n    refundExtraCosts(_amount)\n  {\n    companyToken[msg.sender].transferableTokens[_workerId] += _amount;\n    companyToken[msg.sender].totalSupplied += _amount;\n\n    emit TokensTransferedFromCompanyToWorker(_workerId, _amount);\n  }\n\n  /**\n   * @dev Transfer tokens from worker to worker\n   * @param _from Id of the company worker from DB who sends tokens\n   * @param _to Id of the company worker from DB who receives tokens\n   * @param _companyAddress Address of the company owner of the token\n   * @param _amount Amount of tokens transfered to worker\n   */\n  function transferTokensFromWorkerToWorker(bytes32 _from, bytes32 _to, address _companyAddress, uint256 _amount)\n    public\n    verifyCaller\n    activeToken(_companyAddress)\n    workerRegistered(_from, _companyAddress)\n    workerRegistered(_to, _companyAddress)\n    enoughTransferableTokens(_from, _companyAddress, _amount)\n  {\n    address companyAddress = _companyAddress;\n    bytes32 from = _from;\n    bytes32 to = _to;\n    uint256 amount = _amount;\n\n    companyToken[companyAddress].transferableTokens[from] -= amount;\n    companyToken[companyAddress].burnableTokens[to] += amount;\n    companyToken[msg.sender].totalTransfered += _amount;\n\n    emit TokensTransferedFromWorkerToWorker(from, to, amount);\n  }\n\n  /**\n   * @dev Burn tokens of the worker (action processed when worker exchange tokens)\n   * @param _workerId Id of the company worker from DB who wants to burn tokens\n   * @param _companyAddress Address of the company owner of the token\n   * @param _amount Amount of tokens transfered to worker\n   */\n  function burnTokens(bytes32 _workerId, address _companyAddress, uint256 _amount)\n    public\n    verifyCaller\n    activeToken(_companyAddress)\n    workerRegistered(_workerId, _companyAddress)\n    enoughBurnableTokens(_workerId, _companyAddress, _amount)\n  {\n    companyToken[_companyAddress].burnableTokens[_workerId] -= _amount;\n    companyToken[msg.sender].totalTransfered -= _amount;\n    companyToken[msg.sender].totalBurned += _amount;\n\n    emit TokensBurned(_workerId, _amount);\n  }\n\n  // /**\n  //  * @dev Withdraw contract funds to the contract owner\n  //  * @notice If amount willing to transfer is more than the current\n  //  *         contract balance, all the funds are withdraw\n  //  */\n  // function withdraw()\n  //   public\n  //   onlyOwner\n  // {\n  //   // uint256 amountToWithdraw = _amount;\n  //   // uint256 contractBalance = address(this).balance;\n\n  //   // if (_amount > contractBalance) {\n  //   //   amountToWithdraw = contractBalance;\n  //   // }\n\n  //   msg.sender.transfer(address(this).balance);\n\n  //   // emit Withdraw(amountToWithdraw);\n  // }\n\n  //-------------------------------- //\n  // GETTERS\n  //-------------------------------- //\n\n  /**\n   * @dev Get the worker balance\n   * @param _workerId Id of the company worker from DB\n   * @param _companyAddress Company address\n   * @return Worker Token Balance\n   */\n  function workerBalance(bytes32 _workerId, address _companyAddress)\n    public\n    view\n    workerRegistered(_workerId, _companyAddress)\n    returns (uint256 transferableTokens, uint256 burnableTokens)\n  {\n    transferableTokens = companyToken[_companyAddress].transferableTokens[_workerId];\n    burnableTokens = companyToken[_companyAddress].burnableTokens[_workerId];\n  }\n  \n}",
  "sourcePath": "/Users/adriamartiblasco/Projects/thankly-test/ethereum/contracts/ThanklyToken.sol",
  "compiler": {
    "name": "solc",
    "version": "0.5.16+commit.9c3226ce.Emscripten.clang"
  },
  "schemaVersion": "3.1.0",
  "updatedAt": "2020-04-20T20:43:46.270Z",
  "networkType": "ethereum",
  "devdoc": {
    "details": "This is the Token Smart Contract that will be used to create     tokens for the different companies",
    "methods": {
      "burnTokens(bytes32,address,uint256)": {
        "details": "Burn tokens of the worker (action processed when worker exchange tokens)",
        "params": {
          "_amount": "Amount of tokens transfered to worker",
          "_companyAddress": "Address of the company owner of the token",
          "_workerId": "Id of the company worker from DB who wants to burn tokens"
        }
      },
      "createToken(string,string)": {
        "details": "Create a new token by a company",
        "params": {
          "_name": "Id of the company worker from the DB",
          "_symbol": "Id of the company worker from the DB"
        }
      },
      "initialize(address)": {
        "details": "Initializer function (replaces constructor)",
        "params": {
          "_owner": "Defines the owner of the contract"
        }
      },
      "isOwner()": {
        "details": "Returns true if the caller is the current owner."
      },
      "owner()": {
        "details": "Returns the address of the current owner."
      },
      "registerCompany()": {
        "details": "Register a company into the platform"
      },
      "registerWorker(bytes32)": {
        "details": "Register a new company worker inside the company token",
        "params": {
          "_workerId": "Id of the company worker from DB"
        }
      },
      "renounceOwnership()": {
        "details": "Leaves the contract without owner. It will not be possible to call `onlyOwner` functions anymore. Can only be called by the current owner.     * > Note: Renouncing ownership will leave the contract without an owner, thereby removing any functionality that is only available to the owner."
      },
      "setSellingPercentage(uint256)": {
        "details": "Set Selling Value (only owner of the contract)",
        "params": {
          "_value": "selling value of the token"
        }
      },
      "setTokenActive(bool)": {
        "details": "Create a new token by a company",
        "params": {
          "_newActiveStatus": "New status of the company token (true|false)"
        }
      },
      "setTokenValueConversion(uint256)": {
        "details": "Set Token value conversion (only owner of the contract)",
        "params": {
          "_value": "selling value of the token"
        }
      },
      "setTrustedSigner(address)": {
        "details": "Set trusted signer (it's the platform address)",
        "params": {
          "_trustedSigner": "address of contract addres who calls transfer"
        }
      },
      "transferOwnership(address)": {
        "details": "Transfers ownership of the contract to a new account (`newOwner`). Can only be called by the current owner."
      },
      "transferTokensFromCompanyToWorker(bytes32,uint256)": {
        "details": "Transfer tokens from company to worker",
        "params": {
          "_amount": "Amount of tokens transfered to worker",
          "_workerId": "Id of the company worker from DB"
        }
      },
      "transferTokensFromWorkerToWorker(bytes32,bytes32,address,uint256)": {
        "details": "Transfer tokens from worker to worker",
        "params": {
          "_amount": "Amount of tokens transfered to worker",
          "_companyAddress": "Address of the company owner of the token",
          "_from": "Id of the company worker from DB who sends tokens",
          "_to": "Id of the company worker from DB who receives tokens"
        }
      },
      "workerBalance(bytes32,address)": {
        "details": "Get the worker balance",
        "params": {
          "_companyAddress": "Company address",
          "_workerId": "Id of the company worker from DB"
        },
        "return": "Worker Token Balance"
      }
    },
    "title": "ThanklyToken"
  },
  "userdoc": {
    "methods": {}
  }
}