{
  "contractName": "ThanklyToken",
  "abi": [
    {
      "anonymous": false,
      "inputs": [
        {
          "indexed": false,
          "internalType": "address",
          "name": "companyAddress",
          "type": "address"
        }
      ],
      "name": "CompanyRegistered",
      "type": "event"
    },
    {
      "anonymous": false,
      "inputs": [
        {
          "indexed": true,
          "internalType": "address",
          "name": "previousOwner",
          "type": "address"
        },
        {
          "indexed": true,
          "internalType": "address",
          "name": "newOwner",
          "type": "address"
        }
      ],
      "name": "OwnershipTransferred",
      "type": "event"
    },
    {
      "anonymous": false,
      "inputs": [
        {
          "indexed": false,
          "internalType": "uint256",
          "name": "percentage",
          "type": "uint256"
        }
      ],
      "name": "SellingPercentageModified",
      "type": "event"
    },
    {
      "anonymous": false,
      "inputs": [
        {
          "indexed": false,
          "internalType": "bool",
          "name": "newActiveStatus",
          "type": "bool"
        },
        {
          "indexed": false,
          "internalType": "address",
          "name": "tokenOwnerAddress",
          "type": "address"
        }
      ],
      "name": "TokenActiveStatusChanged",
      "type": "event"
    },
    {
      "anonymous": false,
      "inputs": [
        {
          "indexed": false,
          "internalType": "string",
          "name": "name",
          "type": "string"
        },
        {
          "indexed": false,
          "internalType": "string",
          "name": "symbol",
          "type": "string"
        }
      ],
      "name": "TokenCreated",
      "type": "event"
    },
    {
      "anonymous": false,
      "inputs": [
        {
          "indexed": false,
          "internalType": "uint256",
          "name": "value",
          "type": "uint256"
        }
      ],
      "name": "TokenValueConversionModified",
      "type": "event"
    },
    {
      "anonymous": false,
      "inputs": [
        {
          "indexed": false,
          "internalType": "bytes32",
          "name": "id",
          "type": "bytes32"
        },
        {
          "indexed": false,
          "internalType": "uint256",
          "name": "amount",
          "type": "uint256"
        }
      ],
      "name": "TokensBurned",
      "type": "event"
    },
    {
      "anonymous": false,
      "inputs": [
        {
          "indexed": false,
          "internalType": "bytes32",
          "name": "id",
          "type": "bytes32"
        },
        {
          "indexed": false,
          "internalType": "uint256",
          "name": "amount",
          "type": "uint256"
        }
      ],
      "name": "TokensTransferedFromCompanyToWorker",
      "type": "event"
    },
    {
      "anonymous": false,
      "inputs": [
        {
          "indexed": false,
          "internalType": "bytes32",
          "name": "from",
          "type": "bytes32"
        },
        {
          "indexed": false,
          "internalType": "bytes32",
          "name": "to",
          "type": "bytes32"
        },
        {
          "indexed": false,
          "internalType": "uint256",
          "name": "amount",
          "type": "uint256"
        }
      ],
      "name": "TokensTransferedFromWorkerToWorker",
      "type": "event"
    },
    {
      "anonymous": false,
      "inputs": [
        {
          "indexed": false,
          "internalType": "uint256",
          "name": "amount",
          "type": "uint256"
        }
      ],
      "name": "Withdraw",
      "type": "event"
    },
    {
      "anonymous": false,
      "inputs": [
        {
          "indexed": false,
          "internalType": "bytes32",
          "name": "id",
          "type": "bytes32"
        },
        {
          "indexed": false,
          "internalType": "address",
          "name": "tokenOwnerAddress",
          "type": "address"
        }
      ],
      "name": "WorkerResgistered",
      "type": "event"
    },
    {
      "constant": true,
      "inputs": [
        {
          "internalType": "address",
          "name": "",
          "type": "address"
        }
      ],
      "name": "companyToken",
      "outputs": [
        {
          "internalType": "string",
          "name": "name",
          "type": "string"
        },
        {
          "internalType": "string",
          "name": "symbol",
          "type": "string"
        },
        {
          "internalType": "bool",
          "name": "active",
          "type": "bool"
        },
        {
          "internalType": "bool",
          "name": "registered",
          "type": "bool"
        }
      ],
      "payable": false,
      "stateMutability": "view",
      "type": "function"
    },
    {
      "constant": true,
      "inputs": [],
      "name": "isOwner",
      "outputs": [
        {
          "internalType": "bool",
          "name": "",
          "type": "bool"
        }
      ],
      "payable": false,
      "stateMutability": "view",
      "type": "function"
    },
    {
      "constant": true,
      "inputs": [],
      "name": "owner",
      "outputs": [
        {
          "internalType": "address",
          "name": "",
          "type": "address"
        }
      ],
      "payable": false,
      "stateMutability": "view",
      "type": "function"
    },
    {
      "constant": false,
      "inputs": [],
      "name": "renounceOwnership",
      "outputs": [],
      "payable": false,
      "stateMutability": "nonpayable",
      "type": "function"
    },
    {
      "constant": true,
      "inputs": [],
      "name": "sellingPercentage",
      "outputs": [
        {
          "internalType": "uint256",
          "name": "",
          "type": "uint256"
        }
      ],
      "payable": false,
      "stateMutability": "view",
      "type": "function"
    },
    {
      "constant": true,
      "inputs": [],
      "name": "tokenValueConversion",
      "outputs": [
        {
          "internalType": "uint256",
          "name": "",
          "type": "uint256"
        }
      ],
      "payable": false,
      "stateMutability": "view",
      "type": "function"
    },
    {
      "constant": false,
      "inputs": [
        {
          "internalType": "address",
          "name": "newOwner",
          "type": "address"
        }
      ],
      "name": "transferOwnership",
      "outputs": [],
      "payable": false,
      "stateMutability": "nonpayable",
      "type": "function"
    },
    {
      "constant": true,
      "inputs": [
        {
          "internalType": "bytes32",
          "name": "",
          "type": "bytes32"
        }
      ],
      "name": "workerCompanyAddress",
      "outputs": [
        {
          "internalType": "address",
          "name": "",
          "type": "address"
        }
      ],
      "payable": false,
      "stateMutability": "view",
      "type": "function"
    },
    {
      "constant": false,
      "inputs": [
        {
          "internalType": "address",
          "name": "_owner",
          "type": "address"
        }
      ],
      "name": "initialize",
      "outputs": [],
      "payable": false,
      "stateMutability": "nonpayable",
      "type": "function"
    },
    {
      "constant": false,
      "inputs": [
        {
          "internalType": "uint256",
          "name": "_value",
          "type": "uint256"
        }
      ],
      "name": "setSellingPercentage",
      "outputs": [],
      "payable": false,
      "stateMutability": "nonpayable",
      "type": "function"
    },
    {
      "constant": false,
      "inputs": [
        {
          "internalType": "uint256",
          "name": "_value",
          "type": "uint256"
        }
      ],
      "name": "setTokenValueConversion",
      "outputs": [],
      "payable": false,
      "stateMutability": "nonpayable",
      "type": "function"
    },
    {
      "constant": false,
      "inputs": [
        {
          "internalType": "address",
          "name": "_trustedSigner",
          "type": "address"
        }
      ],
      "name": "setTrustedSigner",
      "outputs": [],
      "payable": false,
      "stateMutability": "nonpayable",
      "type": "function"
    },
    {
      "constant": false,
      "inputs": [],
      "name": "registerCompany",
      "outputs": [],
      "payable": false,
      "stateMutability": "nonpayable",
      "type": "function"
    },
    {
      "constant": false,
      "inputs": [
        {
          "internalType": "string",
          "name": "_name",
          "type": "string"
        },
        {
          "internalType": "string",
          "name": "_symbol",
          "type": "string"
        }
      ],
      "name": "createToken",
      "outputs": [],
      "payable": false,
      "stateMutability": "nonpayable",
      "type": "function"
    },
    {
      "constant": false,
      "inputs": [
        {
          "internalType": "bool",
          "name": "_newActiveStatus",
          "type": "bool"
        }
      ],
      "name": "setTokenActive",
      "outputs": [],
      "payable": false,
      "stateMutability": "nonpayable",
      "type": "function"
    },
    {
      "constant": false,
      "inputs": [
        {
          "internalType": "bytes32",
          "name": "_workerId",
          "type": "bytes32"
        }
      ],
      "name": "registerWorker",
      "outputs": [],
      "payable": false,
      "stateMutability": "nonpayable",
      "type": "function"
    },
    {
      "constant": false,
      "inputs": [
        {
          "internalType": "bytes32",
          "name": "_workerId",
          "type": "bytes32"
        },
        {
          "internalType": "uint256",
          "name": "_amount",
          "type": "uint256"
        }
      ],
      "name": "transferTokensFromCompanyToWorker",
      "outputs": [],
      "payable": true,
      "stateMutability": "payable",
      "type": "function"
    },
    {
      "constant": false,
      "inputs": [
        {
          "internalType": "bytes32",
          "name": "_from",
          "type": "bytes32"
        },
        {
          "internalType": "bytes32",
          "name": "_to",
          "type": "bytes32"
        },
        {
          "internalType": "address",
          "name": "_companyAddress",
          "type": "address"
        },
        {
          "internalType": "uint256",
          "name": "_amount",
          "type": "uint256"
        }
      ],
      "name": "transferTokensFromWorkerToWorker",
      "outputs": [],
      "payable": false,
      "stateMutability": "nonpayable",
      "type": "function"
    },
    {
      "constant": false,
      "inputs": [
        {
          "internalType": "bytes32",
          "name": "_workerId",
          "type": "bytes32"
        },
        {
          "internalType": "address",
          "name": "_companyAddress",
          "type": "address"
        },
        {
          "internalType": "uint256",
          "name": "_amount",
          "type": "uint256"
        }
      ],
      "name": "burnTokens",
      "outputs": [],
      "payable": false,
      "stateMutability": "nonpayable",
      "type": "function"
    },
    {
      "constant": true,
      "inputs": [
        {
          "internalType": "bytes32",
          "name": "_workerId",
          "type": "bytes32"
        },
        {
          "internalType": "address",
          "name": "_companyAddress",
          "type": "address"
        }
      ],
      "name": "workerBalance",
      "outputs": [
        {
          "internalType": "uint256",
          "name": "transferableTokens",
          "type": "uint256"
        },
        {
          "internalType": "uint256",
          "name": "burnableTokens",
          "type": "uint256"
        }
      ],
      "payable": false,
      "stateMutability": "view",
      "type": "function"
    }
  ],
  "bytecode": "0x6080604052612537806100136000396000f3fe60806040526004361061011f5760003560e01c80638f32d59b116100a0578063c9b0fcf211610064578063c9b0fcf214610710578063da11d9161461078b578063f17e7530146107c6578063f2fde38b14610801578063f6cff1b4146108525761011f565b80638f32d59b146104a3578063978f2771146104d25780639cfab6281461061e578063a9dd959414610694578063c4d66de8146106bf5761011f565b80636cf9e034116100e75780636cf9e034146103b8578063715018a6146103e35780637cad1107146103fa5780637f0a2c43146104115780638da5cb5b1461044c5761011f565b80631922ab11146101245780632f2f2d561461015c57806350ac086f146102bb57806356a1c701146102f85780635feb350b14610349575b600080fd5b61015a6004803603604081101561013a57600080fd5b8101908080359060200190929190803590602001909291905050506108b7565b005b34801561016857600080fd5b506102b96004803603604081101561017f57600080fd5b810190808035906020019064010000000081111561019c57600080fd5b8201836020820111156101ae57600080fd5b803590602001918460018302840111640100000000831117156101d057600080fd5b91908080601f016020809104026020016040519081016040528093929190818152602001838380828437600081840152601f19601f8201169050808301925050505050505091929192908035906020019064010000000081111561023357600080fd5b82018360208201111561024557600080fd5b8035906020019184600183028401116401000000008311171561026757600080fd5b91908080601f016020809104026020016040519081016040528093929190818152602001838380828437600081840152601f19601f820116905080830192505050505050509192919290505050610adb565b005b3480156102c757600080fd5b506102f6600480360360208110156102de57600080fd5b81019080803515159060200190929190505050610db8565b005b34801561030457600080fd5b506103476004803603602081101561031b57600080fd5b81019080803573ffffffffffffffffffffffffffffffffffffffff169060200190929190505050610eaf565b005b34801561035557600080fd5b506103b66004803603608081101561036c57600080fd5b810190808035906020019092919080359060200190929190803573ffffffffffffffffffffffffffffffffffffffff16906020019092919080359060200190929190505050610f84565b005b3480156103c457600080fd5b506103cd61126b565b6040518082815260200191505060405180910390f35b3480156103ef57600080fd5b506103f8611271565b005b34801561040657600080fd5b5061040f6113ac565b005b34801561041d57600080fd5b5061044a6004803603602081101561043457600080fd5b81019080803590602001909291905050506114c6565b005b34801561045857600080fd5b50610461611581565b604051808273ffffffffffffffffffffffffffffffffffffffff1673ffffffffffffffffffffffffffffffffffffffff16815260200191505060405180910390f35b3480156104af57600080fd5b506104b86115ab565b604051808215151515815260200191505060405180910390f35b3480156104de57600080fd5b50610521600480360360208110156104f557600080fd5b81019080803573ffffffffffffffffffffffffffffffffffffffff16906020019092919050505061160a565b6040518080602001806020018515151515815260200184151515158152602001838103835287818151815260200191508051906020019080838360005b8381101561057957808201518184015260208101905061055e565b50505050905090810190601f1680156105a65780820380516001836020036101000a031916815260200191505b50838103825286818151815260200191508051906020019080838360005b838110156105df5780820151818401526020810190506105c4565b50505050905090810190601f16801561060c5780820380516001836020036101000a031916815260200191505b50965050505050505060405180910390f35b34801561062a57600080fd5b506106776004803603604081101561064157600080fd5b8101908080359060200190929190803573ffffffffffffffffffffffffffffffffffffffff169060200190929190505050611784565b604051808381526020018281526020019250505060405180910390f35b3480156106a057600080fd5b506106a96118a9565b6040518082815260200191505060405180910390f35b3480156106cb57600080fd5b5061070e600480360360208110156106e257600080fd5b81019080803573ffffffffffffffffffffffffffffffffffffffff1690602001909291905050506118af565b005b34801561071c57600080fd5b506107496004803603602081101561073357600080fd5b81019080803590602001909291905050506119b8565b604051808273ffffffffffffffffffffffffffffffffffffffff1673ffffffffffffffffffffffffffffffffffffffff16815260200191505060405180910390f35b34801561079757600080fd5b506107c4600480360360208110156107ae57600080fd5b81019080803590602001909291905050506119eb565b005b3480156107d257600080fd5b506107ff600480360360208110156107e957600080fd5b8101908080359060200190929190505050611c2f565b005b34801561080d57600080fd5b506108506004803603602081101561082457600080fd5b81019080803573ffffffffffffffffffffffffffffffffffffffff169060200190929190505050611cea565b005b34801561085e57600080fd5b506108b56004803603606081101561087557600080fd5b8101908080359060200190929190803573ffffffffffffffffffffffffffffffffffffffff16906020019092919080359060200190929190505050611d70565b005b3360011515606960008373ffffffffffffffffffffffffffffffffffffffff1673ffffffffffffffffffffffffffffffffffffffff16815260200190815260200160002060020160009054906101000a900460ff1615151461091857600080fd5b60006067541161092757600080fd5b82338073ffffffffffffffffffffffffffffffffffffffff16606a600084815260200190815260200160002060009054906101000a900473ffffffffffffffffffffffffffffffffffffffff1673ffffffffffffffffffffffffffffffffffffffff161461099457600080fd5b83600060675482029050600060646066548302816109ae57fe5b0490508082013410156109c057600080fd5b8687606960003373ffffffffffffffffffffffffffffffffffffffff1673ffffffffffffffffffffffffffffffffffffffff16815260200190815260200160002060030160008b8152602001908152602001600020600082825401925050819055507f4b6246a336e9f44370ab56758d56be048df672ebc0daffcbdaba96fc7b6fe3808989604051808381526020018281526020019250505060405180910390a160006067548202905060006064606654830281610a7a57fe5b0490506000818334030390503373ffffffffffffffffffffffffffffffffffffffff166108fc829081150290604051600060405180830381858888f19350505050158015610acc573d6000803e3d6000fd5b50505050505050505050505050565b60011515606860003373ffffffffffffffffffffffffffffffffffffffff1673ffffffffffffffffffffffffffffffffffffffff16815260200190815260200160002060009054906101000a900460ff16151514610b3857600080fd5b600060665411610b4757600080fd5b81606960003373ffffffffffffffffffffffffffffffffffffffff1673ffffffffffffffffffffffffffffffffffffffff1681526020019081526020016000206000019080519060200190610b9d929190612409565b5080606960003373ffffffffffffffffffffffffffffffffffffffff1673ffffffffffffffffffffffffffffffffffffffff1681526020019081526020016000206001019080519060200190610bf4929190612409565b506001606960003373ffffffffffffffffffffffffffffffffffffffff1673ffffffffffffffffffffffffffffffffffffffff16815260200190815260200160002060020160006101000a81548160ff0219169083151502179055506001606960003373ffffffffffffffffffffffffffffffffffffffff1673ffffffffffffffffffffffffffffffffffffffff16815260200190815260200160002060020160016101000a81548160ff0219169083151502179055507ff9c545e22be560f143ae9cd69f5b3e492fab353d3708a8a670db31c32b485a838282604051808060200180602001838103835285818151815260200191508051906020019080838360005b83811015610d12578082015181840152602081019050610cf7565b50505050905090810190601f168015610d3f5780820380516001836020036101000a031916815260200191505b50838103825284818151815260200191508051906020019080838360005b83811015610d78578082015181840152602081019050610d5d565b50505050905090810190601f168015610da55780820380516001836020036101000a031916815260200191505b5094505050505060405180910390a15050565b60011515606960003373ffffffffffffffffffffffffffffffffffffffff1673ffffffffffffffffffffffffffffffffffffffff16815260200190815260200160002060020160019054906101000a900460ff16151514610e1857600080fd5b600115158115151415610e3357610e2e33611f66565b610e3d565b610e3c33612026565b5b7f4550590450ffb5e9f6a681bb790468c12de8db697e5dff191b56e91202104819813360405180831515151581526020018273ffffffffffffffffffffffffffffffffffffffff1673ffffffffffffffffffffffffffffffffffffffff1681526020019250505060405180910390a150565b610eb76115ab565b610f29576040517f08c379a00000000000000000000000000000000000000000000000000000000081526004018080602001828103825260208152602001807f4f776e61626c653a2063616c6c6572206973206e6f7420746865206f776e657281525060200191505060405180910390fd5b6001606b60008373ffffffffffffffffffffffffffffffffffffffff1673ffffffffffffffffffffffffffffffffffffffff16815260200190815260200160002060006101000a81548160ff02191690831515021790555050565b60011515606b60003373ffffffffffffffffffffffffffffffffffffffff1673ffffffffffffffffffffffffffffffffffffffff16815260200190815260200160002060009054906101000a900460ff16151514610fe157600080fd5b8160011515606960008373ffffffffffffffffffffffffffffffffffffffff1673ffffffffffffffffffffffffffffffffffffffff16815260200190815260200160002060020160009054906101000a900460ff1615151461104257600080fd5b84838073ffffffffffffffffffffffffffffffffffffffff16606a600084815260200190815260200160002060009054906101000a900473ffffffffffffffffffffffffffffffffffffffff1673ffffffffffffffffffffffffffffffffffffffff16146110af57600080fd5b85858073ffffffffffffffffffffffffffffffffffffffff16606a600084815260200190815260200160002060009054906101000a900473ffffffffffffffffffffffffffffffffffffffff1673ffffffffffffffffffffffffffffffffffffffff161461111c57600080fd5b888787600061112b8484611784565b5090508181101561113b57600080fd5b60008b905060008e905060008e905060008d905080606960008673ffffffffffffffffffffffffffffffffffffffff1673ffffffffffffffffffffffffffffffffffffffff16815260200190815260200160002060030160008581526020019081526020016000206000828254039250508190555080606960008673ffffffffffffffffffffffffffffffffffffffff1673ffffffffffffffffffffffffffffffffffffffff1681526020019081526020016000206004016000848152602001908152602001600020600082825401925050819055507fdc2ef08ff62ca25b9db8b9fa9f18ece7a607d5668cc185478176dfe4b423989983838360405180848152602001838152602001828152602001935050505060405180910390a15050505050505050505050505050505050565b60665481565b6112796115ab565b6112eb576040517f08c379a00000000000000000000000000000000000000000000000000000000081526004018080602001828103825260208152602001807f4f776e61626c653a2063616c6c6572206973206e6f7420746865206f776e657281525060200191505060405180910390fd5b600073ffffffffffffffffffffffffffffffffffffffff16603360009054906101000a900473ffffffffffffffffffffffffffffffffffffffff1673ffffffffffffffffffffffffffffffffffffffff167f8be0079c531659141344cd1fd0a4f28419497f9722a3daafe3b4186f6b6457e060405160405180910390a36000603360006101000a81548173ffffffffffffffffffffffffffffffffffffffff021916908373ffffffffffffffffffffffffffffffffffffffff160217905550565b60001515606860003373ffffffffffffffffffffffffffffffffffffffff1673ffffffffffffffffffffffffffffffffffffffff16815260200190815260200160002060009054906101000a900460ff1615151461140957600080fd5b6001606860003373ffffffffffffffffffffffffffffffffffffffff1673ffffffffffffffffffffffffffffffffffffffff16815260200190815260200160002060006101000a81548160ff0219169083151502179055507f62806c829f7c8d0f1563dbdcf4f05f12a6b3c0e29ab581b0ccdffd608e99393833604051808273ffffffffffffffffffffffffffffffffffffffff1673ffffffffffffffffffffffffffffffffffffffff16815260200191505060405180910390a1565b6114ce6115ab565b611540576040517f08c379a00000000000000000000000000000000000000000000000000000000081526004018080602001828103825260208152602001807f4f776e61626c653a2063616c6c6572206973206e6f7420746865206f776e657281525060200191505060405180910390fd5b806067819055507f670c83e88adf8e985ddf47b2b105b66c972622a8e2a2d1a9d07e4173e39355a6816040518082815260200191505060405180910390a150565b6000603360009054906101000a900473ffffffffffffffffffffffffffffffffffffffff16905090565b6000603360009054906101000a900473ffffffffffffffffffffffffffffffffffffffff1673ffffffffffffffffffffffffffffffffffffffff166115ee6120e6565b73ffffffffffffffffffffffffffffffffffffffff1614905090565b6069602052806000526040600020600091509050806000018054600181600116156101000203166002900480601f0160208091040260200160405190810160405280929190818152602001828054600181600116156101000203166002900480156116b65780601f1061168b576101008083540402835291602001916116b6565b820191906000526020600020905b81548152906001019060200180831161169957829003601f168201915b505050505090806001018054600181600116156101000203166002900480601f0160208091040260200160405190810160405280929190818152602001828054600181600116156101000203166002900480156117545780601f1061172957610100808354040283529160200191611754565b820191906000526020600020905b81548152906001019060200180831161173757829003601f168201915b5050505050908060020160009054906101000a900460ff16908060020160019054906101000a900460ff16905084565b60008083838073ffffffffffffffffffffffffffffffffffffffff16606a600084815260200190815260200160002060009054906101000a900473ffffffffffffffffffffffffffffffffffffffff1673ffffffffffffffffffffffffffffffffffffffff16146117f457600080fd5b606960008673ffffffffffffffffffffffffffffffffffffffff1673ffffffffffffffffffffffffffffffffffffffff1681526020019081526020016000206003016000878152602001908152602001600020549350606960008673ffffffffffffffffffffffffffffffffffffffff1673ffffffffffffffffffffffffffffffffffffffff168152602001908152602001600020600401600087815260200190815260200160002054925050509250929050565b60675481565b600060019054906101000a900460ff16806118ce57506118cd6120ee565b5b806118e557506000809054906101000a900460ff16155b61193a576040517f08c379a000000000000000000000000000000000000000000000000000000000815260040180806020018281038252602e8152602001806124d5602e913960400191505060405180910390fd5b60008060019054906101000a900460ff16159050801561198a576001600060016101000a81548160ff02191690831515021790555060016000806101000a81548160ff0219169083151502179055505b61199382612105565b80156119b45760008060016101000a81548160ff0219169083151502179055505b5050565b606a6020528060005260406000206000915054906101000a900473ffffffffffffffffffffffffffffffffffffffff1681565b3360011515606960008373ffffffffffffffffffffffffffffffffffffffff1673ffffffffffffffffffffffffffffffffffffffff16815260200190815260200160002060020160009054906101000a900460ff16151514611a4c57600080fd5b81338073ffffffffffffffffffffffffffffffffffffffff16606a600084815260200190815260200160002060009054906101000a900473ffffffffffffffffffffffffffffffffffffffff1673ffffffffffffffffffffffffffffffffffffffff161415611aba57600080fd5b6000606960003373ffffffffffffffffffffffffffffffffffffffff1673ffffffffffffffffffffffffffffffffffffffff1681526020019081526020016000206003016000868152602001908152602001600020819055506000606960003373ffffffffffffffffffffffffffffffffffffffff1673ffffffffffffffffffffffffffffffffffffffff16815260200190815260200160002060040160008681526020019081526020016000208190555033606a600086815260200190815260200160002060006101000a81548173ffffffffffffffffffffffffffffffffffffffff021916908373ffffffffffffffffffffffffffffffffffffffff1602179055507f1e30ee1ac63c208d22bcf8170e861e5cf5234d5b4e111a1630c1ad3f8440a79d8433604051808381526020018273ffffffffffffffffffffffffffffffffffffffff1673ffffffffffffffffffffffffffffffffffffffff1681526020019250505060405180910390a150505050565b611c376115ab565b611ca9576040517f08c379a00000000000000000000000000000000000000000000000000000000081526004018080602001828103825260208152602001807f4f776e61626c653a2063616c6c6572206973206e6f7420746865206f776e657281525060200191505060405180910390fd5b806066819055507f802cb6f8fccfce62b12d8ec6ee4c162bbe86b43cfc549c06610e799471e43ba5816040518082815260200191505060405180910390a150565b611cf26115ab565b611d64576040517f08c379a00000000000000000000000000000000000000000000000000000000081526004018080602001828103825260208152602001807f4f776e61626c653a2063616c6c6572206973206e6f7420746865206f776e657281525060200191505060405180910390fd5b611d6d816122c3565b50565b60011515606b60003373ffffffffffffffffffffffffffffffffffffffff1673ffffffffffffffffffffffffffffffffffffffff16815260200190815260200160002060009054906101000a900460ff16151514611dcd57600080fd5b8160011515606960008373ffffffffffffffffffffffffffffffffffffffff1673ffffffffffffffffffffffffffffffffffffffff16815260200190815260200160002060020160009054906101000a900460ff16151514611e2e57600080fd5b83838073ffffffffffffffffffffffffffffffffffffffff16606a600084815260200190815260200160002060009054906101000a900473ffffffffffffffffffffffffffffffffffffffff1673ffffffffffffffffffffffffffffffffffffffff1614611e9b57600080fd5b8585856000611eaa8484611784565b91505081811015611eba57600080fd5b87606960008b73ffffffffffffffffffffffffffffffffffffffff1673ffffffffffffffffffffffffffffffffffffffff16815260200190815260200160002060040160008c8152602001908152602001600020600082825403925050819055507fba93aa9969f3fe944dab4e97e638adc5c454a26b7fbff96a93861436b2368bdb8a89604051808381526020018281526020019250505060405180910390a150505050505050505050565b8060001515606960008373ffffffffffffffffffffffffffffffffffffffff1673ffffffffffffffffffffffffffffffffffffffff16815260200190815260200160002060020160009054906101000a900460ff16151514611fc757600080fd5b6001606960008473ffffffffffffffffffffffffffffffffffffffff1673ffffffffffffffffffffffffffffffffffffffff16815260200190815260200160002060020160006101000a81548160ff0219169083151502179055505050565b8060011515606960008373ffffffffffffffffffffffffffffffffffffffff1673ffffffffffffffffffffffffffffffffffffffff16815260200190815260200160002060020160009054906101000a900460ff1615151461208757600080fd5b6000606960008473ffffffffffffffffffffffffffffffffffffffff1673ffffffffffffffffffffffffffffffffffffffff16815260200190815260200160002060020160006101000a81548160ff0219169083151502179055505050565b600033905090565b6000803090506000813b9050600081149250505090565b600060019054906101000a900460ff168061212457506121236120ee565b5b8061213b57506000809054906101000a900460ff16155b612190576040517f08c379a000000000000000000000000000000000000000000000000000000000815260040180806020018281038252602e8152602001806124d5602e913960400191505060405180910390fd5b60008060019054906101000a900460ff1615905080156121e0576001600060016101000a81548160ff02191690831515021790555060016000806101000a81548160ff0219169083151502179055505b81603360006101000a81548173ffffffffffffffffffffffffffffffffffffffff021916908373ffffffffffffffffffffffffffffffffffffffff160217905550603360009054906101000a900473ffffffffffffffffffffffffffffffffffffffff1673ffffffffffffffffffffffffffffffffffffffff16600073ffffffffffffffffffffffffffffffffffffffff167f8be0079c531659141344cd1fd0a4f28419497f9722a3daafe3b4186f6b6457e060405160405180910390a380156122bf5760008060016101000a81548160ff0219169083151502179055505b5050565b600073ffffffffffffffffffffffffffffffffffffffff168173ffffffffffffffffffffffffffffffffffffffff161415612349576040517f08c379a00000000000000000000000000000000000000000000000000000000081526004018080602001828103825260268152602001806124af6026913960400191505060405180910390fd5b8073ffffffffffffffffffffffffffffffffffffffff16603360009054906101000a900473ffffffffffffffffffffffffffffffffffffffff1673ffffffffffffffffffffffffffffffffffffffff167f8be0079c531659141344cd1fd0a4f28419497f9722a3daafe3b4186f6b6457e060405160405180910390a380603360006101000a81548173ffffffffffffffffffffffffffffffffffffffff021916908373ffffffffffffffffffffffffffffffffffffffff16021790555050565b828054600181600116156101000203166002900490600052602060002090601f016020900481019282601f1061244a57805160ff1916838001178555612478565b82800160010185558215612478579182015b8281111561247757825182559160200191906001019061245c565b5b5090506124859190612489565b5090565b6124ab91905b808211156124a757600081600090555060010161248f565b5090565b9056fe4f776e61626c653a206e6577206f776e657220697320746865207a65726f2061646472657373436f6e747261637420696e7374616e63652068617320616c7265616479206265656e20696e697469616c697a6564a265627a7a723158209979526ff2cf389817fa73c521aa01528a9aaf20d64f278fd88c068bcdd42d1f64736f6c63430005100032",
  "source": "pragma solidity ^ 0.5.0;\n\nimport \"@openzeppelin/upgrades/contracts/Initializable.sol\";\nimport \"@openzeppelin/contracts-ethereum-package/contracts/ownership/Ownable.sol\";\n\n/**\n * @title ThanklyToken\n * @dev This is the Token Smart Contract that will be used to create\n *      tokens for the different companies\n */\n\ncontract ThanklyToken is Initializable, Ownable {\n\n  //-------------------------------- //\n  // STORAGE\n  //-------------------------------- //\n\n  // The percentage that the contract charges to the company for mining tokens\n  uint256 public sellingPercentage;\n\n  // The value of the token\n  uint256 public tokenValueConversion;\n\n  struct Token {\n    string name;\n    string symbol;\n    bool active;\n    bool registered;\n    mapping (bytes32 => uint256) transferableTokens;\n    mapping (bytes32 => uint256) burnableTokens;\n  }\n\n  mapping (address => bool) private companyRegistered;\n  mapping (address => Token) public companyToken;\n  mapping (bytes32 => address) public workerCompanyAddress;\n  mapping (address => bool) private trustedSigner;\n\n  //-------------------------------- //\n  // EVENTS\n  //-------------------------------- //\n\n  event SellingPercentageModified(uint256 percentage);\n  event TokenValueConversionModified(uint256 value);\n  event CompanyRegistered(address companyAddress);\n  event TokenCreated(string name, string symbol);\n  event TokenActiveStatusChanged(bool newActiveStatus, address tokenOwnerAddress);\n  event WorkerResgistered(bytes32 id, address tokenOwnerAddress);\n  event TokensTransferedFromCompanyToWorker(bytes32 id, uint256 amount);\n  event TokensTransferedFromWorkerToWorker(bytes32 from, bytes32 to, uint256 amount);\n  event TokensBurned(bytes32 id, uint256 amount);\n  event Withdraw(uint256 amount);\n\n  //-------------------------------- //\n  // MODIFIERS\n  //-------------------------------- //\n\n  /**\n   * @dev Verify address is not previously registered\n   */\n  modifier notRegisteredComapny() {\n    require (companyRegistered[msg.sender] == false);\n    _;\n  }\n\n  /**\n   * @dev Verify address is previously registered\n   */\n  modifier registeredComapny() {\n    require (companyRegistered[msg.sender] == true);\n    _;\n  }\n\n  /**\n   * @dev Verify sellingPercentageDefined is defined\n   */\n  modifier sellingPercentageDefined() {\n    require (sellingPercentage > 0);\n    _;\n  }\n\n  /**\n   * @dev Verify tokenValueConversion is defined\n   */\n  modifier tokenValueConversionDefined() {\n    require (tokenValueConversion > 0);\n    _;\n  }\n\n  /**\n   * @dev Verify that company has a token registered\n   */\n  modifier registeredToken() {\n    require (companyToken[msg.sender].registered == true);\n    _;\n  }\n\n  /**\n   * @dev Verify that company has an active token\n   * @param _companyAddress Address of the company\n   */\n  modifier activeToken(address _companyAddress) {\n    require (companyToken[_companyAddress].active == true);\n    _;\n  }\n\n  /**\n   * @dev Verify that company has an inactive token\n   * @param _companyAddress Address of the company\n   */\n  modifier inactiveToken(address _companyAddress) {\n    require (companyToken[_companyAddress].active == false);\n    _;\n  }\n\n  /**\n   * @dev Verify that is not already registered for that company\n   * @param _workerId worker id from the DB\n   * @param _companyAddress Address of the company\n   */\n  modifier workerUnregistered(bytes32 _workerId, address _companyAddress) {\n    require (workerCompanyAddress[_workerId] != _companyAddress);\n    _;\n  }\n\n  /**\n   * @dev Verify that is already registered for that company\n   * @param _workerId worker id from the DB\n   * @param _companyAddress Address of the company\n   */\n  modifier workerRegistered(bytes32 _workerId, address _companyAddress) {\n    require (workerCompanyAddress[_workerId] == _companyAddress);\n    _;\n  }\n\n  /**\n   * @dev Verify caller as a trsuted signer\n   */\n  modifier verifyCaller() {\n    require (trustedSigner[msg.sender] == true);\n    _;\n  }\n\n  /**\n   * @dev Verify that paid amount is enough\n   * @param _amount amount of tokens to buy\n   */\n  modifier paidEnough(uint256 _amount) {\n    uint256 transactionCost = _amount * tokenValueConversion;\n    uint256 transactionFee = transactionCost * sellingPercentage / 100;\n    require(msg.value >= transactionCost + transactionFee);\n    _;\n  }\n\n  /**\n   * @dev Refund extra costs of the process if needed\n   * @param _amount amount of tokens to buy\n   */\n  modifier refundExtraCosts(uint256 _amount) {\n    _;\n    uint256 transactionCost = _amount * tokenValueConversion;\n    uint256 transactionFee = transactionCost * sellingPercentage / 100;\n    uint256 amountToRefund = msg.value - transactionCost - transactionFee;\n    msg.sender.transfer(amountToRefund);\n  }\n\n  /**\n   * @dev Verify that worker has enough tokens to transfer\n   * @param _workerId worker id from the DB\n   * @param _companyAddress Address of the company\n   * @param _amount Amount willing to transfer/burn\n   */\n  modifier enoughTransferableTokens(bytes32 _workerId, address _companyAddress, uint256 _amount) {\n    (uint256 transferableTokens,) = workerBalance(_workerId, _companyAddress);\n    require(transferableTokens >= _amount);\n    _;\n  }\n\n  /**\n   * @dev Verify that worker has enough tokens to burn\n   * @param _workerId worker id from the DB\n   * @param _companyAddress Address of the company\n   * @param _amount Amount willing to transfer/burn\n   */\n  modifier enoughBurnableTokens(bytes32 _workerId, address _companyAddress, uint256 _amount) {\n    (,uint256 burnableTokens) = workerBalance(_workerId, _companyAddress);\n    require(burnableTokens >= _amount);\n    _;\n  }\n\n  //-------------------------------- //\n  // SETTERS\n  //-------------------------------- //\n  \n  // Initializer function (replaces constructor)\n  /**\n   * @dev Initializer function (replaces constructor)\n   * @param _owner Defines the owner of the contract\n   */\n  function initialize(address _owner)\n    public\n    initializer\n  {\n    Ownable.initialize(_owner);\n  }\n\n  /**\n   * @dev Set Selling Value (only owner of the contract)\n   * @param _value selling value of the token\n   */\n  function setSellingPercentage(uint256 _value)\n    public\n    onlyOwner\n  {\n    sellingPercentage = _value;\n\n    emit SellingPercentageModified(_value);\n  }\n\n  /**\n   * @dev Set Token value conversion (only owner of the contract)\n   * @param _value selling value of the token\n   */\n  function setTokenValueConversion(uint256 _value)\n    public\n    onlyOwner\n  {\n    tokenValueConversion = _value;\n\n    emit TokenValueConversionModified(_value);\n  }\n\n  /**\n   * @dev Set trusted signer (it's the platform address)\n   * @param _trustedSigner address of contract addres who calls transfer\n   */\n  function setTrustedSigner(address _trustedSigner)\n    public\n    onlyOwner\n  {\n    trustedSigner[_trustedSigner] = true;\n  }\n\n  /**\n   * @dev Register a company into the platform\n   */\n  function registerCompany()\n    public\n    notRegisteredComapny\n  {\n    companyRegistered[msg.sender] = true;\n\n    emit CompanyRegistered(msg.sender);\n  }\n\n  /**\n   * @dev Create a new token by a company\n   * @param _name Id of the company worker from the DB\n   * @param _symbol Id of the company worker from the DB\n   */\n  function createToken(string memory _name, string memory _symbol)\n    public\n    registeredComapny\n    sellingPercentageDefined\n  {\n    companyToken[msg.sender].name = _name;\n    companyToken[msg.sender].symbol = _symbol;\n    companyToken[msg.sender].active = true;\n    companyToken[msg.sender].registered = true;\n\n    emit TokenCreated(_name, _symbol);\n  }\n\n  /**\n   * @dev Create a new token by a company\n   * @param _newActiveStatus New status of the company token (true|false)\n   */\n  function setTokenActive(bool _newActiveStatus)\n    public\n    registeredToken\n  {\n    if (_newActiveStatus == true) {\n      _setTokenAsActive(msg.sender);\n    } else {\n      _setTokenAsInactive(msg.sender);\n    }\n\n    emit TokenActiveStatusChanged(_newActiveStatus, msg.sender);\n  }\n\n  /**\n   * @dev Set company token as active (internal function)\n   * @param _companyAddress Address of the company owner of the token\n   */\n  function _setTokenAsActive(address _companyAddress)\n    internal\n    inactiveToken(_companyAddress)\n  {\n    companyToken[_companyAddress].active = true;\n  }\n\n  /**\n   * @dev Set company token as inactive (internal function)\n   * @param _companyAddress Address of the company owner of the token\n   */\n  function _setTokenAsInactive(address _companyAddress)\n    internal\n    activeToken(_companyAddress)\n  {\n    companyToken[_companyAddress].active = false;\n  }\n\n  /**\n   * @dev Register a new company worker inside the company token\n   * @param _workerId Id of the company worker from DB\n   */\n  function registerWorker(bytes32 _workerId)\n    public\n    activeToken(msg.sender)\n    workerUnregistered(_workerId, msg.sender)\n  {\n    companyToken[msg.sender].transferableTokens[_workerId] = 0;\n    companyToken[msg.sender].burnableTokens[_workerId] = 0;\n    workerCompanyAddress[_workerId] = msg.sender;\n\n    emit WorkerResgistered(_workerId, msg.sender);\n  }\n\n  /**\n   * @dev Transfer tokens from company to worker\n   * @param _workerId Id of the company worker from DB\n   * @param _amount Amount of tokens transfered to worker\n   */\n  function transferTokensFromCompanyToWorker(bytes32 _workerId, uint256 _amount)\n    public\n    payable\n    activeToken(msg.sender)\n    tokenValueConversionDefined\n    workerRegistered(_workerId, msg.sender)\n    paidEnough(_amount)\n    refundExtraCosts(_amount)\n  {\n    companyToken[msg.sender].transferableTokens[_workerId] += _amount;\n\n    emit TokensTransferedFromCompanyToWorker(_workerId, _amount);\n  }\n\n  /**\n   * @dev Transfer tokens from worker to worker\n   * @param _from Id of the company worker from DB who sends tokens\n   * @param _to Id of the company worker from DB who receives tokens\n   * @param _companyAddress Address of the company owner of the token\n   * @param _amount Amount of tokens transfered to worker\n   */\n  function transferTokensFromWorkerToWorker(bytes32 _from, bytes32 _to, address _companyAddress, uint256 _amount)\n    public\n    verifyCaller\n    activeToken(_companyAddress)\n    workerRegistered(_from, _companyAddress)\n    workerRegistered(_to, _companyAddress)\n    enoughTransferableTokens(_from, _companyAddress, _amount)\n  {\n    address companyAddress = _companyAddress;\n    bytes32 from = _from;\n    bytes32 to = _to;\n    uint256 amount = _amount;\n\n    companyToken[companyAddress].transferableTokens[from] -= amount;\n    companyToken[companyAddress].burnableTokens[to] += amount;\n\n    emit TokensTransferedFromWorkerToWorker(from, to, amount);\n  }\n\n  /**\n   * @dev Burn tokens of the worker (action processed when worker exchange tokens)\n   * @param _workerId Id of the company worker from DB who wants to burn tokens\n   * @param _companyAddress Address of the company owner of the token\n   * @param _amount Amount of tokens transfered to worker\n   */\n  function burnTokens(bytes32 _workerId, address _companyAddress, uint256 _amount)\n    public\n    verifyCaller\n    activeToken(_companyAddress)\n    workerRegistered(_workerId, _companyAddress)\n    enoughBurnableTokens(_workerId, _companyAddress, _amount)\n  {\n    companyToken[_companyAddress].burnableTokens[_workerId] -= _amount;\n\n    emit TokensBurned(_workerId, _amount);\n  }\n\n  // /**\n  //  * @dev Withdraw contract funds to the contract owner\n  //  * @notice If amount willing to transfer is more than the current\n  //  *         contract balance, all the funds are withdraw\n  //  */\n  // function withdraw()\n  //   public\n  //   onlyOwner\n  // {\n  //   // uint256 amountToWithdraw = _amount;\n  //   // uint256 contractBalance = address(this).balance;\n\n  //   // if (_amount > contractBalance) {\n  //   //   amountToWithdraw = contractBalance;\n  //   // }\n\n  //   msg.sender.transfer(address(this).balance);\n\n  //   // emit Withdraw(amountToWithdraw);\n  // }\n\n  //-------------------------------- //\n  // GETTERS\n  //-------------------------------- //\n\n  /**\n   * @dev Get the worker balance\n   * @param _workerId Id of the company worker from DB\n   * @param _companyAddress Company address\n   * @return Worker Token Balance\n   */\n  function workerBalance(bytes32 _workerId, address _companyAddress)\n    public\n    view\n    workerRegistered(_workerId, _companyAddress)\n    returns (uint256 transferableTokens, uint256 burnableTokens)\n  {\n    transferableTokens = companyToken[_companyAddress].transferableTokens[_workerId];\n    burnableTokens = companyToken[_companyAddress].burnableTokens[_workerId];\n  }\n  \n}",
  "sourcePath": "/Users/adriamartiblasco/Projects/thankly-test/ethereum/contracts/ThanklyToken.sol",
  "compiler": {
    "name": "solc",
    "version": "0.5.16+commit.9c3226ce.Emscripten.clang"
  },
  "schemaVersion": "3.1.0",
  "updatedAt": "2020-04-17T17:50:12.513Z",
  "networkType": "ethereum",
  "devdoc": {
    "details": "This is the Token Smart Contract that will be used to create     tokens for the different companies",
    "methods": {
      "burnTokens(bytes32,address,uint256)": {
        "details": "Burn tokens of the worker (action processed when worker exchange tokens)",
        "params": {
          "_amount": "Amount of tokens transfered to worker",
          "_companyAddress": "Address of the company owner of the token",
          "_workerId": "Id of the company worker from DB who wants to burn tokens"
        }
      },
      "createToken(string,string)": {
        "details": "Create a new token by a company",
        "params": {
          "_name": "Id of the company worker from the DB",
          "_symbol": "Id of the company worker from the DB"
        }
      },
      "initialize(address)": {
        "details": "Initializer function (replaces constructor)",
        "params": {
          "_owner": "Defines the owner of the contract"
        }
      },
      "isOwner()": {
        "details": "Returns true if the caller is the current owner."
      },
      "owner()": {
        "details": "Returns the address of the current owner."
      },
      "registerCompany()": {
        "details": "Register a company into the platform"
      },
      "registerWorker(bytes32)": {
        "details": "Register a new company worker inside the company token",
        "params": {
          "_workerId": "Id of the company worker from DB"
        }
      },
      "renounceOwnership()": {
        "details": "Leaves the contract without owner. It will not be possible to call `onlyOwner` functions anymore. Can only be called by the current owner.     * > Note: Renouncing ownership will leave the contract without an owner, thereby removing any functionality that is only available to the owner."
      },
      "setSellingPercentage(uint256)": {
        "details": "Set Selling Value (only owner of the contract)",
        "params": {
          "_value": "selling value of the token"
        }
      },
      "setTokenActive(bool)": {
        "details": "Create a new token by a company",
        "params": {
          "_newActiveStatus": "New status of the company token (true|false)"
        }
      },
      "setTokenValueConversion(uint256)": {
        "details": "Set Token value conversion (only owner of the contract)",
        "params": {
          "_value": "selling value of the token"
        }
      },
      "setTrustedSigner(address)": {
        "details": "Set trusted signer (it's the platform address)",
        "params": {
          "_trustedSigner": "address of contract addres who calls transfer"
        }
      },
      "transferOwnership(address)": {
        "details": "Transfers ownership of the contract to a new account (`newOwner`). Can only be called by the current owner."
      },
      "transferTokensFromCompanyToWorker(bytes32,uint256)": {
        "details": "Transfer tokens from company to worker",
        "params": {
          "_amount": "Amount of tokens transfered to worker",
          "_workerId": "Id of the company worker from DB"
        }
      },
      "transferTokensFromWorkerToWorker(bytes32,bytes32,address,uint256)": {
        "details": "Transfer tokens from worker to worker",
        "params": {
          "_amount": "Amount of tokens transfered to worker",
          "_companyAddress": "Address of the company owner of the token",
          "_from": "Id of the company worker from DB who sends tokens",
          "_to": "Id of the company worker from DB who receives tokens"
        }
      },
      "workerBalance(bytes32,address)": {
        "details": "Get the worker balance",
        "params": {
          "_companyAddress": "Company address",
          "_workerId": "Id of the company worker from DB"
        },
        "return": "Worker Token Balance"
      }
    },
    "title": "ThanklyToken"
  },
  "userdoc": {
    "methods": {}
  }
}